:020000040800F2
:10000000980900203D020008AB2300087B1D000872
:10001000A92300088B0600087129000800000000D1
:10002000000000000000000000000000F9240008AB
:100030008D0600080000000075240008FB2400085D
:10004000570200085702000857020008570200082C
:10005000570200085702000857020008570200081C
:10006000570200085702000857020008570200080C
:1000700057020008570200085702000857020008FC
:10008000570200085702000857020008000000004D
:1000900000000000000000000000000057020008FF
:1000A00057020008570200085702000857020008CC
:1000B00057020008570200085702000857020008BC
:1000C00057020008570200085702000857020008AC
:1000D00057020008570200085702000800000000FD
:1000E00057020008570200085702000800000000ED
:1000F000000000000000000000000000570200089F
:1001000000000000570200085702000857020008CC
:1001100000000000000000000000000000000000DF
:10012000570200085702000857020008570200084B
:10013000570200080000000000000000000000005E
:10014000000000000000000000000000570200084E
:10015000570200085702000857020008570200081B
:1001600057020008570200080000000000000000CD
:10017000000000000000000000000000000000007F
:10018000000000005702000800000000000000000E
:100190005702000800F002F800F040F80AA090E8CA
:1001A000000C82448344AAF10107DA4501D100F032
:1001B00035F8AFF2090EBAE80F0013F0010F18BFBF
:1001C000FB1A43F001031847E43400000435000033
:1001D000103A24BF78C878C1FAD8520724BF30C873
:1001E00030C144BF04680C60704700000023002445
:1001F00000250026103A28BF78C1FBD8520728BF37
:1002000030C148BF0B6070471FB503F039FA9DE855
:10021000030000F06BF91FBD10B510BD00F0C1F96F
:100220001146FFF7F1FF02F0B7FB00F0DFF903B46E
:10023000FFF7F2FF03BC02F0ACFB00000948804767
:1002400009480047FEE7FEE7FEE7FEE7FEE7FEE7B8
:10025000FEE7FEE7FEE7FEE704480549054A064BD0
:1002600070470000952500089501000898010020BE
:10027000980900209805002098050020704770B567
:10028000064600F017F9056806F10B0020F0070498
:10029000B4429CBF002070BD2B466A68BAB110689A
:1002A000A04210D304F1080188423CBF5068586056
:1002B00007D35168101941601168091B016058602B
:1002C0001460101D70BD13465268002AE7D1214604
:1002D000284600F0F7F80028DED170BD70B504465E
:1002E000051F00F0E7F80068002C14BF446870BDDB
:1002F000002C18BFAC423CBF20466468F8D30168AC
:100300000A18AA4218BF456003D12A68054611445D
:10031000016028684119A1421CBF6C6070BD616812
:10032000696021680844286070BD53EA020C00F03F
:1003300069802DE9F04B4FF00006002B1FBFB3FA88
:1003400083F503FA05F424FA05F65E4012BF16435E
:10035000B2FA82F502FA05F4C5F120051EBF22FAB1
:1003600005FC44EA0C04203556EA044C4FEA1444D8
:1003700018BF641C4FF000084FF00009904271EB69
:10038000030C39D3002919BFB1FA81F701FA07F636
:10039000B0FA80F700FA07F6C7F120071EBF20FA6F
:1003A00007FC46EA0C062037B6FBF4FCA7EB050772
:1003B000103F07F01F0BCBF120060CFA0BFB2CFAB9
:1003C00006F644BFB3460026202FA4BF5E464FF07A
:1003D000000B5BEA060C08BF4FF0010B19EB0B0991
:1003E000ABFB027C48EB0608C01B06FB02CC0BFBF8
:1003F00003CC71EB0C01C1E70B460246414648466F
:10040000BDE8F08B13B54FF000004FF00001AFF3E3
:100410000080BDE81C4070474FF000020429C0F086
:10042000128010F0030C00F01B80CCF1040CBCF126
:10043000020F18BF00F8012BA8BF20F8022BA1EB78
:100440000C0100F00DB85FEAC17C24BF00F8012B5D
:1004500000F8012B48BF00F8012B70474FF0000255
:1004600000B5134694469646203922BFA0E80C50AA
:10047000A0E80C50B1F12001BFF4F7AF090728BF85
:10048000A0E80C5048BF0CC05DF804EB890028BF01
:1004900040F8042B08BF704748BF20F8022B11F02A
:1004A000804F18BF00F8012B7047704770477047A6
:1004B00070470000004870473C01002070477047BB
:1004C0007047704738B504460A4600206946AFF3C6
:1004D0000080002808BF38BD02460099204600F081
:1004E0003FF8012038BD012000F054B8F8B5AFF353
:1004F0000080054600200C46102000BF0646A819C3
:10050000A0420DD9324669460020AFF300800700B3
:1005100008BF00F03FF80098A04218BF0546C41974
:10052000FFF7C8FF05600746F01D20F007004619D9
:10053000284600F00AF8B44208BFF8BDA21B3146B5
:100540003868BDE8F84000F00BB800210160C0E950
:100550000110704710207047004870473401002098
:10056000034640688C46002818BF88423CBF0346BB
:100570004068F8D318681844884207D00CF103008B
:1005800020F00700001D411A521A0146081D0A609A
:10059000FFF7A4BE10B500F037F8BDE8104000F03A
:1005A0002EB87546FFF7D8FFAE460500694653469C
:1005B00020F00700854618B020B5FFF74DFEBDE8D6
:1005C00020404FF000064FF000074FF000084FF0BA
:1005D000000B21F00701AC46ACE8C009ACE8C0094B
:1005E000ACE8C009ACE8C0098D46704710B50446B8
:1005F000AFF300802046BDE81040FFF718BE00288A
:1006000001D002F0C6B9704710B5012805D000210D
:1006100003A000F021F8012010BD09A1F8E70000B7
:1006200053494752544D454D3A204F7574206F66DB
:100630002068656170206D656D6F72790000000043
:100640003A2048656170206D656D6F727920636F27
:10065000727275707465640070B505460C460A20A8
:1006600000E06D1C02F096F935B128780028F8D129
:1006700002E0641C02F08EF914B120780028F8D151
:10068000BDE870400A2002F085B9FEE7704772B6F7
:10069000FEE72DE9F0410446876D00F0E3F90646D8
:1006A00094F835000025022806D08020606584F883
:1006B00034500120BDE8F0812068016821F0160166
:1006C00001602068416921F080014161206C08B916
:1006D000A06C20B12068016821F008010160206849
:1006E000016821F0010101600CE000F0BBF9801B02
:1006F000052807D920206065032084F8350084F898
:100700003450D7E720680068C007EED194F85C1039
:100710003F208840B860012084F8350084F83450C8
:100720000020C7E7406D704770B5044600F09AF9A5
:100730000546601C02D004480078044400F092F999
:10074000401BA042FAD370BD000000202DE9F04FFD
:100750000022DFF808B101264FF00F0906FA02F473
:1007600001EA0403A34274D122F003075F44D7F8DF
:10077000088895074FEA157C09FA0CFA0AEA080579
:10078000DFF8DC80404502D14FF000081DE0DFF8C3
:10079000D480404502D14FF0010816E0DFF8C88050
:1007A000404502D14FF002080FE0DFF8C08040451D
:1007B00002D14FF0030808E0DFF8B480404502D1D1
:1007C0004FF0040801E04FF0070808FA0CF8A845BC
:1007D00022D1284DD5F800C02CEA030CC5F800C082
:1007E0002D1DD5F800C02CEA030CC5F800C0214D22
:1007F0000C35D5F800C02CEA030CC5F800C02D1F3D
:10080000D5F800C02CEA030CC5F800C0D7F808588A
:1008100025EA0A05C7F80858056857000323BB40B6
:100820009D430560D50800EB8505D5F820C0570726
:100830004FEAD76809FA08F72CEA070CC5F820C078
:10084000C5689D43C5604568A543456084689C4371
:100850008460521C102A81D3BDE8F08F0030014023
:10086000000002400004024000080240000C024068
:1008700000100240003C01402DE9F84FDFF8B8A11C
:100880000022012403254FF00F090AF1040BAAF1FD
:10089000040E00BF0B6804FA02F63340B34273D172
:1008A0000F7907F00307012F01D0022F16D18768B7
:1008B0004FEA420805FA08FC27EA0C07D1F80CC0F9
:1008C0000CFA08FC4CEA070CC0F808C04768B743AC
:1008D0000E79C6F3001696403E4346600E79F64305
:1008E000B6070DD0C768560005FA06FC27EA0C07C4
:1008F000D1F808C00CFA06FC4CEA070CC0F80CC092
:100900000E7906F00306022E10D1D60800EB8608F9
:10091000D8F8206057074FEAD76C09FA0CF7BE43A6
:100920000F6907FA0CF73743C8F8207006684FEADA
:10093000420C05FA0CF7BE430F7907F0030707FADC
:100940000CF7374307604E6816F4403F6DD03B4EBE
:10095000376847F480473760366822F0030706F4AB
:1009600080460096364E07EB060CDCF808689707C1
:100970003F0F09FA07F826EA0806DFF8C880404565
:1009800003D14FF000081EE04FE0DFF8BC80404587
:1009900002D14FF0010816E0DFF8B080404502D1E7
:1009A0004FF002080FE0DFF8A880404502D14FF079
:1009B000030808E0DFF89C80404502D14FF00408AE
:1009C00001E04FF0070808FA07F848EA0608CCF8F3
:1009D0000888DAF800605746D1F804C09E435FEA01
:1009E000CC2C00D51E433E60DBF800605F46D1F89A
:1009F00004C09E435FEA8C2C00D51E433E60DEF8A7
:100A000000607746D1F804C09E435FEA8C3C00D575
:100A10001E433E60084F083F3E68D1F804C09E4325
:100A20005FEACC3C00D51E433E60521C102AFFF406
:100A300031AFBDE8F88F0000083C01404438024067
:100A40000030014000000240000402400008024063
:100A5000000C0240001002400AB181617047090495
:100A6000FBE700000148806870470000000000209C
:100A700070B5040025D094F83D00002520B984F815
:100A80003C50204600F03EFA242084F83D002068C7
:100A9000016821F0010101602068016841F4004112
:100AA00001602068016821F40041016000F084FBCE
:100AB0004D4A6168914201D84C4900E04C49884256
:100AC00001D2012070BD4B492368B0FBF1F15E6893
:100AD00026F03F060E435E606368934206D94FF4EA
:100AE000967359434FF47A73B1FBF3F12368491CB1
:100AF0001E6A26F03F06314319626168914210D8A0
:100B00004900401EB0FBF1F2521CC2F30B02042A52
:100B100001D2042022E0B0FBF1F0401CC0F30B0036
:100B20001CE0A268F2B301EBC10303EB0116431E04
:100B3000B3FBF6F35B1C43F480431B0549D092B32F
:100B400001EBC10202EB0111401EB0FBF1F0401CB1
:100B5000C0F30B0040F4804040F400402168CA69B3
:100B60004CF6FF739A431043C861D4E90710014360
:100B70002068026822F0C00211430160D4E9030139
:100B800001432068826848F2FF339A431143816031
:100B9000D4E9050108432168CA6822F0FF02104326
:100BA000C86001E00EE016E02068016841F0010134
:100BB00001602564202084F83D00256384F83E50C0
:100BC000002070BD01EB4106431EB3FBF6F35B1C36
:100BD000B3E70120C2E701EB4101401EB0FBF1F099
:100BE000401CC0F30B00B7E7A086010080841E0004
:100BF00000093D0040420F002DE9F84F1F46904686
:100C00008A460446DDF82890FFF72CFF054694F845
:100C10003D00202875D1192301226C4920460095FA
:100C200001F0AEF90028F5D194F83C00012868D015
:100C3000012084F83C0020680168C90703D10168DD
:100C400041F0010101602068016821F40061016048
:100C5000222084F83D00102084F83E0000262664FF
:100C6000C4F824806785608D20855948E0622B4652
:100C70004A465146204601F099F8002878D1208D47
:100C8000544F68B1012814D002282068016816D09A
:100C900041F480610160206841698069009087E0CB
:100CA0002068416981690091016841F40071016027
:100CB0007EE02068016821F480610160F0E721F4A2
:100CC000806101602068016841F40061E2E7032867
:100CD00048D801280AD0022814D04B4600223946B1
:100CE0002046009501F04CF9D8BB27E02A4649463A
:100CF000204601F0C4F9A0BB20680069616A087051
:100D00004DE061E04B46002239462046009501F057
:100D100037F930BB2068016841F400710160206838
:100D20000069616A0870606A401C6062218D491E1A
:100D30002185618D491E618521682EE0206801684A
:100D400021F48061016020680069616A0870606A4E
:100D5000401C6062208D401E2085608D401E608595
:100D6000D0E705E02A464946204601F088F910B14F
:100D70000120BDE8F88F20680069616A0870606A28
:100D8000401C6062218D491E2185618D491E61854F
:100D900021684A69D24352070AD409690170606A1E
:100DA000401C6062208D401E2085608D401E608545
:100DB000208D00288BD1202084F83D0084F83E60EF
:100DC00084F83C600020D4E70220D2E70200100043
:100DD0000000FFFF040001002DE9F84F1F46904678
:100DE0008A460446DDF82890FFF73CFE054694F855
:100DF0003D0020287FD1192301224049204600953B
:100E000001F0BEF8002876D194F83C00012872D099
:100E1000012084F83C0020680168C90703D10168FB
:100E200041F0010101602068016821F40061016066
:100E3000212084F83D00102084F83E00002626641E
:100E4000C4F824806785608D20852D48E0622B469C
:100E50004A465146204601F01FF890B92068416982
:100E60008069009036E02A464946204601F03AF96A
:100E700050B1206C042804D12068016841F400714D
:100E800001600120BDE8F88F606A21680078086180
:100E9000606A401C6062618D491E6185218D491E1A
:100EA00089B2218522685369DB435B070BD451B1BA
:100EB00000781061606A401C6062608D401E608531
:100EC000208D401E20852A464946204601F032F8F2
:100ED0000028CED1208D0028C5D154F83D0B0168E3
:100EE00041F400710160202004F81E09E67766775E
:100EF0000020C7E7FFE70220C4E70000020010005F
:100F00000000FFFF10B586B0044614216846FFF7C5
:100F1000A5FA13492068884220D1124800210268AE
:100F200042F002020260006800F002000590C0205A
:100F300000901220CDE901010320039004200490C9
:100F400069460948FFF798FC06481030016841F4EB
:100F500000110160006800F40010059006B010BD9B
:100F600000540040303802400004024002488168CA
:100F70000278114481607047000000200B4810B5D2
:100F8000016841F400710160016841F48061016011
:100F9000016841F480710160032000F061F80F20C6
:100FA00000F006F800F024F8002010BD003C0240DC
:100FB00070B50D4D04464FF47A712878B1FBF0F00E
:100FC0000A490968B1FBF0F000F0FCFA48B9102CAE
:100FD00007D200222146501E00F022F800206C604B
:100FE00070BD012070BD0000000000200C0000203A
:100FF0000A4808B5016841F480410160006800F4C6
:10100000804000900548001F016841F08051016058
:10101000006800F08050009008BD00004438024095
:10102000F0B40E4B1B680C46C3F30223C3F1070553
:10103000042D00D90425191D072901D2002300E041
:10104000DB1E012606FA05F1491E214099409E400B
:10105000761E16403143F0BC01F08BBC0CED00E075
:10106000064900F0070208684FF6FF03184040EAFF
:101070000220034A10430860704700000CED00E0B6
:101080000000FA052DE9F0470E46050065D0DFF8AF
:101090001481D8F80000F7B200F00700B04207D280
:1010A00088F80070D8F8000000F00700B04254D172
:1010B00028683D4C810712D5400703D5206840F4CD
:1010C000E05020602878000703D5206840F4604095
:1010D00020602068A96820F0F0000843206028788C
:1010E000C0072DD0304968680839012812D002287D
:1010F00013D0032811D00968890700292DDA216847
:1011000021F0030101432160FFF7ACFC814641F26D
:10111000883A0EE009688903EFE709688901ECE77E
:10112000FFF7A0FCA0EB0901514502D90320BDE85F
:10113000F0872068696800F00C00B0EB810FEFD1F8
:10114000D8F80010404601F00701B14207D90770F6
:10115000006800F00700B04201D00120E7E72878DE
:10116000400705D52068E96820F4E0500843206076
:101170002878000706D52068296920F4604040EAF5
:10118000C100206000F038F82168084AC1F303115B
:10119000515CC8400649086006480068FFF708FF30
:1011A0000020C4E7003C02400838024092360008A4
:1011B0000C0000200400002004480549006809686C
:1011C000044AC1F38221515CC84070470C000020E2
:1011D00008380240A236000804480549006809683A
:1011E000044AC1F34231515CC84070470C000020F2
:1011F00008380240A2360008154810B5006810F003
:101200000C02144813D04110042A0FD0082A0ED122
:101210000F4C241F2268236802F03F025B0207D5AF
:101220002068C0F38810A0FB010106E0084610BD4D
:101230002168C1F38811A1FB00010023FFF775F8B5
:101240002168C1F30141491C4900B0FBF1F010BD18
:10125000083802400024F4002DE9F84F04006ED055
:101260002078DFF84C93C007A9F104054AD009F1B2
:1012700004000168C1F38101012908D00068C0F3AE
:10128000810002280AD1D9F80000400206D528685A
:10129000800337D560680028E1D033E06068B0F59E
:1012A000803F10D0B0F5A02F286810D020F48030F7
:1012B0002860286820F4802028606068A8B1FFF7C3
:1012C000D1FB06460DE0286840F48030F4E740F496
:1012D00080202860F7E700BFFFF7C4FB801B64286D
:1012E00073D828688003F7D50CE0FFF7BBFB0646F0
:1012F00005E000BFFFF7B6FB801B6428F0D8286824
:101300008003F7D42078DFF8AC8280074FF0000A22
:101310003ED5A748001D016811F00C0F08D00068E9
:10132000C0F3810002280BD1D9F80000400207D495
:101330002868800716D5E068012800D112E033E163
:10134000E068B8B10120C8F80000FFF78BFB064643
:1013500005E000BFFFF786FB801B0228C0D8286885
:101360008007F7D52868216920F0F80040EAC1001D
:1013700028600DE0C8F800A0FFF774FB064604E003
:10138000FFF770FB801B02281FD828688007F7D45E
:101390002078000722D5864F87486169703771B180
:1013A00001210160FFF75EFB064604E0FFF75AFBF0
:1013B000801B022809D838688007F7D50EE0C0F8EE
:1013C00000A0FFF74FFB064605E082E0FFF74AFB6F
:1013D000801B02287DD838688007F7D42078400722
:1013E00068D5DFF8CCB100270BF13C0BDBF800002F
:1013F000C0000BD4DBF8001041F08051CBF8001096
:10140000DBF80000012700F0805000906B4E306840
:10141000C00510D4306840F480703060FFF722FBC4
:10142000009005E0FFF71EFB0099401A022850D8F3
:101430003068C005F6D55E4EA0686C3601280FD026
:101440000528306810D020F001003060306820F0AE
:1014500004003060A068B8B1FFF704FB00900FE013
:10146000306840F00100F4E740F004003060F7E736
:10147000FFF7F8FA0099411A41F28830814266D8A4
:1014800030688007F4D50EE0FFF7ECFA009007E033
:10149000FFF7E8FA0099411A41F28830814256D8A4
:1014A00030688007F4D42FB1DBF8001021F08051B0
:1014B000CBF80010A069C8B33D49091D0968C1F304
:1014C000810102294AD00228504607D0C8F860009E
:1014D00000E03CE0FFF7C6FA04463BE04746C8F8A8
:1014E0006000FFF7BFFA064605E000BFFFF7BAFA53
:1014F000801B02282BD828688001F7D4D4E9070183
:101500000843A16A2E4A490802EB0141626A41EA96
:101510008211084394F82C1040EA0161C9F80010C8
:1015200001203866FFF79EFA044606E03EE000BF61
:10153000FFF798FA001B022809D828688001F7D520
:1015400034E000BFFFF78EFA001B022802D9032007
:10155000BDE8F88F28688001F4D427E00128F7D08F
:10156000D9F80000E26900F4800191421CD1226A9E
:1015700000F03F01914217D147F6C071626A014005
:10158000B1EB821F10D1A26A4FF0FF3300F440315B
:1015900003EB5202B1EB024F06D194F82C1000F08D
:1015A0007060B0EB016F01D00120D1E70020CFE7E0
:1015B0000438024000004742800E4742007000405D
:1015C0000000FFFF10B5401EB0F1807F01D3012065
:1015D00010BD4FF0E02460610F21601701F0C9F9E0
:1015E0000020A06107202061002010BD10B590F8F8
:1015F0003C20012A22D0012280F83C20CA688C6855
:1016000022F4407222434C6822F4806222430C6828
:1016100022F4006222430C6922F4805222434C6976
:1016200022F400522243C969002322F480420A4373
:1016300001684A6480F83C30002010BD022010BDD3
:1016400070B590F83C20012A2CD0012480F83C4051
:10165000022280F83D2003685A689D6822F07006D7
:101660000A6832435A60104B02689A420ED0B2F1B7
:10167000804F0BD00D4B9A4208D00D4B9A4205D0AB
:101680000C4B9A4202D00C4B9A4204D1496825F087
:1016900080031943916080F83D40002180F83C10A0
:1016A000084670BD022070BD0000014000040040EB
:1016B00000080040000C00400040014010B504004C
:1016C00003D094F83D0010B107E0012010BD0020C8
:1016D00084F83C00204600F01FF8022084F83D000A
:1016E000211D206800F05EFF012084F8460084F888
:1016F0003E0084F83F0084F8400084F8410084F8FC
:10170000420084F8430084F8440084F8450084F8DB
:101710003D00002010BD000008B500680649884261
:1017200008D10648016841F001010160006800F03D
:101730000100009008BD0000000001404438024054
:1017400090F83D10012901D001207047022180F856
:101750003D1000680E4988420ED0B0F1804F0BD08A
:101760000C49884208D00C49884205D00B49884270
:1017700002D00B49884204D1816801F00701062993
:1017800003D0016841F001010160002070470000B2
:10179000000001400004004000080040000C004030
:1017A0000040014070B5044690F83C000025012837
:1017B00017D0012684F83C60022084F83D002068A0
:1017C000826822F0770222F47F4282600868502803
:1017D00038D00DDC20284FD005DC90B3102811D173
:1017E0004AE0022070BD302846D040280AD13BE0B4
:1017F00060282FD070280DD0B0F5805F03D0B0F5F1
:10180000005F12D0012584F83D60002084F83C0080
:10181000284670BDCB68D1E90121206800F00EFF99
:101820002068816841F0770109E0CB68D1E90121A6
:10183000206800F003FF2068816841F480418160E6
:10184000E1E719E0CA684968206800F0ABFF502161
:10185000206806E0CA684968206800F0B4FF60218B
:10186000206800F0F5FECEE7CA684968206800F0FD
:1018700099FF40212068F4E7226801461046F0E70E
:1018800010B586B0044614216846FEF7E7FD0E4900
:101890002068884216D10D480021026842F00102FA
:1018A0000260006800F0010005904FF48070009025
:1018B0000220CDE901010120CDE903106946044869
:1018C000FEF7DAFF06B010BD0000014030380240DC
:1018D0000000024070B5044690F83C0000260D461A
:1018E00001280FD0012084F83C006AB1042A1DD0E1
:1018F000082A2FD00C2A3FD00126002084F83C0073
:10190000304670BD022070BD206800F0A9FE20683E
:10191000816941F0080181612068816921F0040139
:101920008161206881692A69114311E0206800F013
:10193000BFFE2068816941F400618161206881698E
:1019400021F480618161206881692A6941EA02216C
:101950008161D2E7206800F0D7FE2068C16941F0BC
:101960000801C1612068C16921F00401C1612068DA
:10197000C1692A69114311E0206800F0F1FE206876
:10198000C16941F40061C1612068C16921F48061CD
:10199000C1612068C1692A6941EA0221C161ACE7DD
:1019A00010B5040003D094F83D0010B107E0012009
:1019B00010BD002084F83C00204600F01EF80220F4
:1019C00084F83D00211D206800F0ECFD012084F822
:1019D000460084F83E0084F83F0084F8400084F814
:1019E000410084F8420084F8430084F8440084F8FD
:1019F000450084F83D00002010BD704770B50446D6
:101A000020680C3050E8001F21F4907140E800126B
:101A1000002AF5D12068143050E8001F21F00101A0
:101A200040E80012002AF5D1206B012809D1206876
:101A30000C3050E8001F21F0100140E80012002A8D
:101A4000F5D1206840694FF00005400615D52068A3
:101A5000143050E8001F21F0400140E80012002A35
:101A6000F5D1A06B48B10565A06BFEF712FE20B161
:101A7000A06BFEF757FE202806D0E585202084F8CD
:101A80003E002563002070BD10202064032070BD3F
:101A900010B5040014D0242084F83D002068C168EB
:101AA00021F40051C160204600F03EF8002020647F
:101AB00084F83D0084F83E0044F8300F207310BDD8
:101AC000012010BD70B5040004D094F83D0000253D
:101AD00010B106E0012070BD84F83C50204600F0B3
:101AE00045F8242084F83D002068C16821F40051A5
:101AF000C160204600F07AFE2068016921F490411F
:101B000001612068416921F02A0141612068C168B2
:101B100041F40051C1602564202084F83D0084F820
:101B20003E00002070BD00000C4A01680C48914244
:101B300007D10C490A6822F010020A604FF4C06114
:101B400009E0094A914208D10649091F0A6822F4AE
:101B500000320A600C21FEF7F9BD70470010014009
:101B6000000002404438024000440040F0B587B015
:101B7000044614216846FEF771FC1F4F23680022BB
:101B80001E490224032507261D48BB4213D11B4BC7
:101B900014331F6847F010071F601B6803F0100321
:101BA00005930B6843F001030B60096801F0010124
:101BB0000591690215E0134FBB421AD10F4B103348
:101BC0001F6847F400371F601B6803F40033059358
:101BD0000B6843F001030B60096801F001010591F6
:101BE0000C21CDE9001402AB694683E86400FEF7DE
:101BF00043FE07B0F0BD0000001001403038024045
:101C000000000240004400402DE9F84F044690F8DF
:101C10003E009A4616460D46202853D1FDB1F6B136
:101C200094F83C0001284DD0012084F83C000027A6
:101C30002764222084F83E002763FEF713FFA68561
:101C40008146E685A0684FF48058404501D120695F
:101C500040B12E465FF0000584F83C7027E001207B
:101C6000BDE8F88F0026F7E74B46002220212046EA
:101C7000CDF800A000F040FE08B10320F0E726B147
:101C8000A06840451BD038B108E020684068C0F328
:101C9000080025F8020B07E0206980B12068406841
:101CA00000F07F0006F8010BE08D401EE085E08D1E
:101CB0000028D9D1202084F83E000020D0E72068F9
:101CC0004068EFE70220CBE72DE9F843044690F89F
:101CD0003D001F4616460D4620284CD1C5B1BEB169
:101CE00094F83C00012846D0012084F83C004FF0D5
:101CF0000008C4F84080212084F83D00FEF7B2FEC1
:101D0000A6848146E684A068B0F5805F03D004E035
:101D10000120BDE8F883206928B12E465FF0000558
:101D200084F83C800EE00026FAE78021204600F08F
:101D3000E3FDA0B9AEB116F8010B21684860E08C54
:101D4000401EE084E08C4B464FF0000200970028D4
:101D5000EBD14FF04001204600F0CEFD30B1032022
:101D6000D7E735F8020BC0F30800E6E7202084F837
:101D70003D000020CDE70220CBE7FEE701684A697D
:101D8000D24352050FD46FF480624A61002140F8BB
:101D9000301F202242738173026942F00402026103
:101DA0000173012070470020704700002DE9F84FB3
:101DB0000446C06A1E4693460D4621680A6842F4EE
:101DC00080620A60082807D0012805D010F5803FFE
:101DD00002D0206B112804D12068016841F4807181
:101DE00001604FF001195B460022494620460096EB
:101DF00000F0C6F84FF4007840B120680068C005D4
:101E000001D5C4F840800320BDE8F88F2069DFF8D1
:101E100084A0B0F5804F0FD00620216800EAD517C6
:101E200047F0F000086133465A460AF106012046A1
:101E300000F0DAF858BB03E0E8B240F001001CE023
:101E40002168E8B2086133465A465146204600F000
:101E5000CBF8E0B92068416981690091016841F4DB
:101E6000807101605B46002249462046009600F0E2
:101E700087F80028C1D147F0F10021680861334696
:101E80005A465146204600F0AFF80028BCD0012049
:101E9000BAE7000002000100F8B50446C06A1E4619
:101EA0000D461746082807D0012805D010F5803FB9
:101EB00002D0206B122804D12068016841F480719F
:101EC0000160134600224FF001112046009600F0F9
:101ED00057F840B120680068C00502D54FF4007083
:101EE00020640320F8BD2069B0F5804F0ED0062095
:101EF000216800EAD51040F0F000086133463A4608
:101F00000B49204600F070F878B902E005F0FE00B9
:101F100000E0E8B221680861054933463A46891F66
:101F2000204600F061F80028DCD00120F8BD000058
:101F30000800010070B516460D4604460DE0204627
:101F4000FFF71CFF08B1012070BD681C05D0FEF72B
:101F500089FD801BA84207D835B120684069C0437D
:101F60004007ECD4002070BD002044F8300F202141
:101F70006173A073216941F0200121612073E2E7C0
:101F80002DE9F0471E4690460D460446C1F307472B
:101F9000DDF8209008E0701C06D0FEF763FDA0EB92
:101FA0000900B0420FD876B12068012F18D080699F
:101FB00025EA00000004000C14D000214145EAD0BD
:101FC0000020BDE8F087002044F8300F2021617325
:101FD000A073216941F02001216120730120F0E705
:101FE0004069E5E70121E9E72DE9F0479A46914686
:101FF0000E46044600254FF02008C1F3074725E0B0
:1020000020684069C043400514D42068016841F449
:102010000071016021686FF480604861256384F875
:102020003D8084F83E50206C40F00400206484F829
:102030003C501FE0B9F1FF3F08D0FEF713FDA0EBC5
:102040000A0149450CD8B9F1000F09D02068012FC9
:1020500013D0806926EA00000004000C0BD0CFE703
:1020600044F8305F84F80D80A573206940F02000AB
:10207000206125730120BDE8F0874069EAE72DE97A
:10208000F041002590460E460446202717E040699F
:10209000C043C0060CD454F8301B6FF010004861E8
:1020A00044F810596777A577206A2062257717E0F2
:1020B000FEF7D8FCA0EB0800B04208D83EB120687B
:1020C0004169C9434906E2D40020BDE8F08144F8E3
:1020D000305F6773A573206940F02000206125738D
:1020E0000120F2E770B516460D4604460DE0204685
:1020F000FFF744FE08B1012070BD681C05D0FEF753
:10210000B1FC801BA84207D835B120684069C043A4
:102110000006ECD4002070BD002044F8300F2021D0
:102120006173A073216941F0200121612073E2E70E
:102130002DE9F04387B014216846FEF78FF9374840
:102140000024016841F004010160016801F004010C
:102150000591016841F080010160016801F0800192
:102160000591016841F001010160016801F0010180
:102170000591016841F0020101600068DFF8A0806C
:1021800000F002000590002242F230014046FEF7C6
:1021900063FC244F0022E0213846FEF75DFCDFF8A7
:1021A0008890002207214846FEF756FC0122802134
:1021B0004046FEF751FC4FF4005000900125CDE958
:1021C0000154694640460394FEF756FBE02003267F
:1021D000CDE90005CDE9024669463846FEF74CFBDD
:1021E000B020CDE90005CDE9024669464046FEF73C
:1021F00043FBCDE90065CDE9024669464846FEF756
:102200003BFB04200090CDE9015469464846039405
:10221000FEF732FB07B0BDE8F08300003038024023
:102220000008024000000240000402400D4810B5C2
:102230000B4901600C49416000214FF480428160EC
:10224000C0E9031241618161C1610162FEF710FCC6
:10225000002803D0BDE81040FEF719BA10BD0000F9
:102260000054004010000020A086010010B596B078
:1022700000240F9410941194129413941C2108A814
:102280001494FEF7EBF820216846FEF7E7F829489A
:10229000274901604721C0E9011444F61F61C0E9E4
:1022A00003148021C0E90541FFF708FA08B1FEF7E1
:1022B000EEF94FF480500F900FA91E48FFF772FA05
:1022C00008B1FEF7E4F91B48FFF76AFB08B1FEF717
:1022D000DEF9139413A917481494FFF7B1F908B164
:1022E000FEF7D5F96020CDE908040A940B940C940C
:1022F0000D94002208A90F480E94FFF7EBFA08B1DD
:10230000FEF7C5F900944FF40050CDE90440029463
:1023100001940394694607480794FFF767F908B1E9
:10232000FEF7B5F90348FFF7ABFA16B010BD000091
:1023300000000140640000200C4810B50A4901600B
:102340004FF4E1314160002181600C22C160C0E99D
:1023500004128161C161FFF7B5FB002803D0BDE81D
:102360001040FEF794B910BD00100140AC000020F1
:102370000C4810B50A4901604FF4E1314160002179
:1023800081600C22C160C0E904128161C161FFF764
:1023900099FB002803D0BDE81040FEF778B910BDC6
:1023A00000440040F0000020FEE7FEE708B51021E1
:1023B000002000F04DF87921FE2000F049F80021BE
:1023C000084600F045F8A121002000F041F86946D8
:1023D000002000F009F89DF80000000603D56420F5
:1023E000FEF7A2F9F3E708BD33B581B00C464FF014
:1023F000FF35012301AA802105480095FEF7ECFC7A
:1024000001232246812102480095FEF7F5FB3EBDDF
:10241000100000200EB5062303EB80008DF80400A9
:102420008DF80510080A8DF80600100A8DF80800CE
:10243000D81F8DF807200090052301AA80210348AA
:10244000FEF7CAFC6420FEF76FF90EBD10000020F5
:102450001CB502238DF804004FF0FF308DF80510F5
:10246000009001AA80210248FEF7B6FC1CBD0000C6
:10247000100000207047000010B50446084600F028
:1024800004FF9FED131B53EC112B00F079FD9FED22
:10249000121B53EC112B00F00BFF9FED111B53ECA3
:1024A000112B00F0C5FC9FED101B53EC112B00F01D
:1024B000FFFE9FED0F1B53EC112B00F061FD00F0B0
:1024C000B7FE02462046BDE810400021FFF7A2BF3C
:1024D0000000000000806640000000000000004096
:1024E000000000000000E03F0000000000FEAF40E0
:1024F00000000000000034407047FEF737BD0000C8
:1025000030B593B030216846FDF7A8FF14210CA820
:10251000FDF7A4FF1D480024016841F080510160CF
:10252000006800F0805011901948016821F4404182
:1025300041F4004101600068022500F44040119020
:102540000120039010200490009506950820CDE905
:1025500007404820CDE9090504200B906846FEF7A6
:102560007BFE08B172B6FEE70F20CDE90C054FF4F3
:102570008050CDE90E4002210CA81094FEF782FD98
:10258000002801D072B6FEE713B030BD40380240DB
:10259000007000400248016841F47001016070471A
:1025A00088ED00E0F0B502681D4B1E4C9F031E4DE8
:1025B0001E4E984207D0B84205D0A04203D0A84290
:1025C00001D0B04204D122F0700C4A6842EA0C02F9
:1025D000984210D0B8420ED0A0420CD0A8420AD0E7
:1025E000B04208D0124CA04205D0124CA04202D0FA
:1025F000114CA04203D122F44074CA6822434C69B2
:1026000022F08002224302608A68C2620A68826203
:10261000984201D10969016301214161F0BD0000C7
:10262000000001400004004000080040000C004091
:1026300000400140004401400048014010B584685A
:1026400042EA032224F47F440A432243826010BDFD
:10265000826822F070020A4342F0070181607047ED
:1026600030B5026A22F001020262026A436884699C
:1026700024F073050C682C4322F002058A682A4373
:102680000A4DA8420BD122F00805CA6823F4407312
:102690002A434D6922F004021D438B692B4343609A
:1026A000846149684163026230BD0000000001405E
:1026B00030B5026A22F010020262026A436884693D
:1026C0000D6824F4E64444EA05248D6822F02002D3
:1026D00042EA05120B4DA8420ED1CD6822F08002CD
:1026E00042EA05124D6923F4406343EA85038D698C
:1026F00022F0400243EA85034360846149688163B4
:10270000026230BD0000014030B5026A22F48072DE
:102710000262036A4268C46923F4007324F07305FB
:102720000C682C438D6843EA05230C4DA8420ED15A
:10273000CD6823F4006343EA05234D6922F4405237
:1027400042EA05128D6923F4806342EA0512426071
:10275000C4614968C163036230BD000000000140EC
:1027600030B5026A22F480520262046A4268C36988
:102770000D6823F4E64343EA05238D6824F40054EE
:1027800044EA0534064DA84204D14D6922F4804242
:1027900042EA85124260C36149680164046230BD47
:1027A0000000014010B5036A046A24F001040462C9
:1027B000846924F0F00444EA021423F00A020A4374
:1027C0008461026210BD10B5036A23F01003036236
:1027D0008369046A23F4704343EA023224F0A003BD
:1027E00043EA01118261016210BD000070B5044628
:1027F00000680169E26821F44051114301612169D7
:10280000A068E26908436169114308432168CA6806
:1028100049F20C639A430243CA6020684169A26985
:1028200021F440711143416131492068884202D04E
:102830003049884202D1FEF7CFFC01E0FEF7BCFC34
:10284000E2690023192164253226B2F5004F62683F
:1028500028D0A0FB0101930F9200FDF766FD014611
:10286000B0FBF5F06FF01802504301EB800006EB6F
:102870000010B0FBF5F000F0F002B1FBF5F002EB58
:102880000012B1FBF5F06FF01803584301EB800024
:1028900006EB0010B0FBF5F000F00F0021681044CB
:1028A000886070BDA0FB010192185B41FDF73DFD02
:1028B0000146B0FBF5F00201B1FBF5F06FF0180333
:1028C000584301EB800006EBC000B0FBF5F000F0D0
:1028D000F80002EB4002B1FBF5F0584301EB800039
:1028E00006EBC000B0FBF5F000F00700D6E70000F3
:1028F00000100140001401402DE9F04198461746B0
:102900000E460446069D27E0681C25D02DB1FEF733
:10291000A9F8A0EB0800A8421ED920680C3050E8A6
:10292000001F21F4D07140E80012002AF5D1206880
:10293000143050E8001F21F0010140E80012002A85
:10294000F5D1202084F83D0084F83E00002084F872
:102950003C000320BDE8F0812068006836EA0000F2
:1029600004D00020B842CFD00020F3E70120F9E7DF
:10297000FEE70907090E002804DB00F1E02080F8DB
:102980000014704700F00F0000F1E02080F8141DE3
:10299000704770477047000090B0FEF7EFFAFFF7FE
:1029A000AFFDFFF7C5FBFFF741FCFFF75FFCFFF74B
:1029B000C3FCFFF7DDFCA748FEF7C2FEFFF7F6FCFD
:1029C00000210846FFF758FDB4210120FFF754FD10
:1029D0002A208DF8340054208DF83800FF208DF81F
:1029E0003C0000249CA08DF82440D0E90010009405
:1029F000CDE90710ADF80440DFF864B28DF8064069
:102A00004FF0FF3A0A9496480B94FEF7F7FFDBF875
:102A100000106FF0200008605546534605220AA9B1
:102A20008F48FFF7F1F89DF82C009DF82B109DF8CA
:102A3000292000EB01209DF8281080B211449DF858
:102A40002A201144814272D1AA46534601220DA97F
:102A50008348FFF739F99DF82900FDF710FC8046FF
:102A60009DF82910FDF7D8FC9DF829202B464146FA
:102A70007B48FFF7C9F87A48FFF70AF800250BE012
:102A800018F8250008B3012872D09DF82400401CD6
:102A90008DF824006D1CEDB29DF82800A842EFD8F7
:102AA0004046FDF71BFC6E48FFF70CF89DF824002C
:102AB00000286ED00A945346012209A968480B9455
:102AC000FFF702F98DF824409CE708EB850007AA80
:102AD00041788146525C0C92807810B1012827D051
:102AE00058E05DF8211099F8030088420DDDA0EB55
:102AF00001074FF0000605E04FF002010C9800F0CE
:102B0000B1F8761CBE42F7DB0AE009DA0F1A00269C
:102B100004E002210C9800F017F9761CBE42F8DBA5
:102B200099F8012099F803104DF82210B2E782E0DD
:102B300099F80300802816D2C0F1800047B24FF008
:102B4000000606E04FF002010C9800F0FDF8761C3C
:102B500076B2BE42F6DB99F801005DF82020D21B68
:102B60004DF8202096E795D9803847B2002606E038
:102B700016E002210C9800F075F8761C76B2BE4281
:102B8000F7DB99F801105DF821203A444DF8212037
:102B900080E747E09DF82400401C8DF824007FE783
:102BA00008EB850607A87178B278405C9AB1012AD3
:102BB000F0D180291AD2F2785DF82130C2F180027A
:102BC00052B26F4693420FDA0021FFF755FC70783E
:102BD00047F820405EE796F90370F9B2FFF74CFC26
:102BE00071784DF8217055E79A1A15E09ED9F27860
:102BF0006F46803A53B25DF821201FFA82FCCCF573
:102C0000807C9C4507DAB421FFF736FC7178B4204C
:102C100047F821003EE7D21A47F82120D1B2FFF74A
:102C20002BFC37E7534601220FA90D48FFF74CF85C
:102C30000A940B94E6E600200AA90C54401C0528CF
:102C4000FBDB8DF824402B4601220EA90448FFF738
:102C50003BF8D7E6640000200405060001070800E1
:102C6000AC0000202DE9F041334E344D884640B190
:102C7000012835D1324F0724285DC00732D0012208
:102C800031E0304F0724285DC00701D0012200E069
:102C9000002220213846FDF7DFFE285D800701D5A0
:102CA000012200E0002240213846FDF7D5FE285DD4
:102CB000400701D5012200E0002280213846FDF7BF
:102CC000CBFE285D000701D5012200E00022102183
:102CD0003046FDF7C1FE4046FDF726FD641ED2D505
:102CE000BDE8F081002220213046FDF7B5FE285DC9
:102CF000800701D5012200E0002201213846FDF7BE
:102D0000ABFE285D400701D5012200E00022022130
:102D10003846FDF7A1FE285D000701D5012200E03D
:102D2000002204213846FDF797FE4046FDF7FCFCE3
:102D3000641EA1D5D4E70000000802408A360008CE
:102D400000040240000002402DE9F041344E354DB0
:102D5000884640B1012836D1334F0024285DC00792
:102D600033D0012232E0314F0024285DC00701D06A
:102D7000012200E0002220213846FDF76DFE285D8B
:102D8000800701D5012200E0002240213846FDF7EE
:102D900063FE285D400701D5012200E0002280216A
:102DA0003846FDF759FE285D000701D5012200E0F5
:102DB000002210213046FDF74FFE4046FDF7B4FCDF
:102DC000641C082CD1DBBDE8F081002220213046B4
:102DD000FDF742FE285D800701D5012200E00022B8
:102DE00001213846FDF738FE285D400701D5012254
:102DF00000E0002202213846FDF72EFE285D000784
:102E000001D5012200E0002204213846FDF724FE0E
:102E10004046FDF789FC641C082C9FDBD3E70000CB
:102E2000000802408A360008000402400000024008
:102E300010B591EA030F48BF83F0004300F13E83D1
:102E4000841A71EB030C05D2121943EB0C03001B1F
:102E500061EB0C01DFF824E14FEA1154A4EB135CA1
:102E60001EEA430F18BF9EEA445F73D023EA0E03A5
:102E7000DCF1200E21EA045143F4801332D322FA0C
:102E80000CFE10EB0E0023FA0CFE41EB0E01CCF110
:102E9000200E03FA0EFE10EB0E0051F10001B1F509
:102EA000801FCCF1200E32D201EB045112FA0EF247
:102EB000BDE8104058BF7047401C38BF5FEA42026F
:102EC00018BF7047002814BF20F0010041F1000135
:102ED0004FEA410313F5001F38BF7047A1F1C0410D
:102EE00000F0DEBA012A43EB0302ACF1200CDCF166
:102EF0001F0E32BF4FF0000E23FA0CF310EB03004D
:102F000041EB0451B4EB115FD0D0A1EB045101F5BA
:102F1000801149085FEA300001EB04510ED350F1F3
:102F2000000038BF12FA0EFE08D1BDE81040C9E714
:102F3000401C38BF5FEA4202CAD1C3E7BDE8104077
:102F40004FEA410313F5001F38BF7047A1F1C0419C
:102F500000F0A6BA9EEA445F08D011EA5E0FBDE811
:102F6000104004BF01F0004100207047BDE8104050
:102F700070B500F047FA00BF64FBBE3E0000E0FF02
:102F80002DE9C04130B4DFF8A0C23CEA111418BFEB
:102F90003CEA131400F0EC8081EA03051CEA1114EA
:102FA00044EAD57418BF1CEA131500F0C780A4EBDF
:102FB00005044FF0004545EAC12145EAC32341EA33
:102FC000505143EA525304F17F74994204F500349E
:102FD0004FEAC0204FEAC22208BF904200F09C8016
:102FE0004FEA13650FF24016765D4FEA134506FB74
:102FF00005F7C7F1807706FB07F74FEAD737A7FB3E
:1030000003687642C8F58038A7FB06CE38BFA8F122
:10301000010807FB08E64FF0000EA6FB028CE6FB5A
:1030200003CEDCF1000CCEF1004E38BFAEF1010E44
:10303000A6FB0C584FF000074FF00005E6FB0E878B
:10304000A1FB08C6A0FB07CE16EB0E0645F1000556
:10305000E1FB076515F1E04E7EBFA4F580345FEA21
:1030600046066D4116F1800745F100054FEA172726
:103070004FEA066647EA0567A6F1DE46B6F1805FCD
:103080004FEA15251FD9384624F0010C05EBC47111
:10309000BCF1FE6F01EB0C1102D8F0BCBDE8008161
:1030A00024425CBF01F5801E9EEAC47F02D4F0BCBE
:1030B000BDE80081244238D4F0BCA1F1C041BDE894
:1030C000004100F0EDB94FEAD22242EA43524FEA02
:1030D000D323A7FB02864FEAD02040EA415007FBEA
:1030E00003661EEA0E0F4FEAD12105FB026658BFA8
:1030F000A6EB0056B6EB00564FEA520E4EEAC37EE0
:1031000018EB0E0E56EB530EBDD518EB02085E41C0
:103110007F1C55F10005B6E74FF480154FF000070E
:103120004FF000064FF00008ADE7F0BC4FF0000094
:1031300001F1C04101F00041BDE8008111EA0C1F1E
:103140000CEA131500D00CE013EA0C1F00F02580E8
:103150004FF00000F0BC81EA030101F00041BDE83E
:103160000081F0BCBDE8004181EA030100F098B99C
:10317000F0BCBDE8004170B500F044F9097EFC3EAA
:1031800000F007B881EA03014FF0000001F00041B0
:10319000704781EA030100F083B9F0BCBDE800414B
:1031A0004FF0000021497047FFFDFBF9F7F5F4F2FD
:1031B000F0EEEDEBE9E8E6E4E3E1E0DEDDDBDAD8D2
:1031C000D7D5D4D3D1D0CFCDCCCBCAC8C7C6C5C430
:1031D000C2C1C0BFBEBDBCBBBAB9B8B7B6B5B4B347
:1031E000B2B1B0AFAEADACABAAA9A8A8A7A6A5A432
:1031F000A3A3A2A1A09F9F9E9D9C9C9B9A999998F6
:103200009797969595949393929191908F8F8E8E98
:103210008D8C8C8B8B8A8989888887878685858425
:1032200084838382828181800000FF070000F87F11
:103230004FEA1153A3F58063D3F11E03A8BFD3F166
:10324000200C08DB4FF0004242EAC12252EA505201
:1032500032FA03F0704709420BD4102BC4BF002090
:10326000704703F5787CBCF1FF3F05D04FF0FF308D
:1032700070474FF00000704770B500F0C3F800BF12
:103280004992248000207047F0E7B0FA80F310FAEA
:1032900003F10AD0C3F11D0303F580634FEA4150E7
:1032A0004FEA035202EBD12170474FF00000704704
:1032B000DFF848C170B51CEA111E1EBF1CEA1315C9
:1032C0009EEA0C0F95EA0C0F00F06F8081EA030470
:1032D00023EA4C134EEAD47E21EA4C1141F48011CA
:1032E00043F48013AE44A1FB024CA0FB0365AEF196
:1032F0007F7E361955EB0C05A1FB034C4CF1000306
:10330000A0FB021C16EB0C06654153F100030942B9
:1033100018BF46F0010613F4007F0BD14FEA0331CA
:103320004FEA0530340341EA155140EA16506FF078
:1033300003020AE04FEAC3214FEAC520F40241EA42
:10334000555140EA56506FF0020202EB2E4201EB5B
:10335000025585EACE710AD05FEA440C18BF24F00A
:10336000004450F1000041F1000120EAD47040F225
:10337000FE7C624500D270BDA84214BF4FF080446D
:103380004FF04044002E08BF0024BEF1806FA8BF5C
:10339000A1F1C041BDE8704080F282804FF0000092
:1033A00001F1C04101F0004170479EEA0C0F0CEAA8
:1033B000131518BF95EA0C0F06D04FF0000081EAF4
:1033C000030E0EF0004170BD00F01CF88900013EB4
:1033D00000F007B800F009B84FEA430C5FEA5C5C04
:1033E00008D081EA030100F05BB84FEA410C5FEAC4
:1033F0005C5CF6D14FF00000014970470000FF0708
:103400000000F87F0EF1020E2EF0030E5EF8046B42
:10341000364205D4012A43EB030515F5001F12D8E7
:10342000012841EB010C1CF5001F0CD80ED14FEA0E
:10343000D17C15F5001F0CEB4C0C0CF1020C08BFF5
:103440004CEBD37C04E04FF0080C01E04FEAD37C56
:103450000CEB4C0526FA05F606F00706B6F1040C4F
:1034600006D20EEB860CBDE870404CF0010C6047B4
:10347000DFE80CF0090B02024FF000414FF00000B2
:10348000A1F5002170BD19461046012851EB010439
:1034900018BFD4F5001484BF002001F0004170BDB6
:1034A0000808A0F500114FEA3101704710B591EA04
:1034B000030F48BF83F000433FF5C2AC841A71EBA1
:1034C000030C07D212198CF0004C43EB0C03001BC9
:1034D00061EB0C01DFF8A4E14FEA1154A4EB135C9B
:1034E0001EEA430F18BF9EEA445F00F0B08023EA53
:1034F0006E03524221EA0451C3EB6E0338BF5B1ED8
:10350000DCF1200E25D322FA0CFE10EB0E0043FA5C
:103510000CFE41EB0E01CCF1200E03FA0EFE10EB77
:103520000E0051F10001CCF1200E29D412FA0EF256
:1035300001EB0451BDE8104058BF7047401C1CBF50
:10354000B2F1004F704700280CBF491C20F0010069
:10355000704712EB020E43EB030218BF4FF0010E4F
:103560004EEA4202ACF1200CDCF11E0E54D943FAB3
:103570000CFE10EB0E0051F1FF31CCF11E0ED5D533
:103580000EF1010E12FA0EFE404141EB010101EB7A
:10359000445C5FEA5C5C10D910EBDE7001EB045117
:1035A00038BFBEF1004FBDE8104018BF704700287B
:1035B0000CBF491C20F00100704730D24FEAD42CD8
:1035C00011F5001124F400641BD0B1FA81F20B3A1A
:1035D000A41AA41ED2F12003914030FA03F3194338
:1035E000904001EBCC71002C01EB0451BDE8104080
:1035F000A8BF704701F1C0414FF0000001F0004149
:103600007047B0FA80F310FA03F100D110BDE41A4C
:10361000173C4805C90AE4E701EB045110BD491005
:1036200001EB0451BDE810404FEA300002E04FF0DA
:10363000000170474A0008BF0042F8D0B2F5001FF1
:1036400028BF704701F000414FF0000070479EEA2C
:10365000445F07D011EA5E0FBDE8104004BF0021AF
:1036600000207047BDE8104070B5FFF7CBFE00BFEB
:1036700040DFF63E83F00041104670470000E0FF57
:103680004FF04070E1EE100A704701020408010299
:103690000408000000000000000001020304060707
:1036A000080900000000010203040000CC360008F5
:1036B0000000002010000000D0010008DC360008E7
:1036C0001000002088090000EC0100080100000043
:0C36D00010000000000000000024F400C6
:040000050800019559
:00000001FF
